:020000040800F2
:10000000B0060020A9010008CB140008A7130008BF
:10001000C914000835050008ED1B000800000000A9
:100020000000000000000000000000009917000818
:100030003705000800000000CD1400089B170008D9
:10004000C3010008C3010008C3010008C301000880
:10005000C3010008CF14000839050008C3010008D7
:10006000C3010008C3010008C3010008C301000860
:10007000C3010008C3010008C3010008C301000850
:10008000C3010008C3010008C3010008000000000C
:100090000000000000000000000000003F05000814
:1000A000C3010008C3010008C3010008C301000820
:1000B000C3010008C3010008C3010008C301000810
:1000C000C3010008C3010008C3010008C301000800
:1000D000C3010008111B0008D51B00080000000028
:1000E000C3010008C3010008C301000800000000AC
:1000F000000000000000000000000000C301000834
:1001000000000000C3010008C3010008C30100088B
:1001100000000000000000000000000000000000DF
:10012000C3010008C3010008C3010008C30100089F
:10013000C3010008000000000000000000000000F3
:10014000000000000000000000000000C3010008E3
:10015000C3010008C3010008C3010008E11B000837
:10016000C3010008C30100080000000000000000F7
:10017000000000000000000000000000000000007F
:1001800000000000C30100080000000000000000A3
:10019000C3010008DFF80CD000F08CF800480047DD
:1001A000B11E0008B00600200648804706480047F8
:1001B000FEE7FEE7FEE7FEE7FEE7FEE7FEE7FEE717
:1001C000FEE7FEE741180008950100082DE9F05F01
:1001D0000546002092469B468846064681464024B6
:1001E0001BE0284641464746224600F053F8534656
:1001F0005A46C01A914110D311461846224600F0C3
:100200003AF82D1A67EB01084F46224601200021DB
:1002100000F031F817EB00094E41201EA4F1010453
:10022000DFDC484631462A464346BDE8F09FD2B25D
:1002300001E000F8012B491EFBD270470022F6E7CF
:1002400010B513460A4604461946FFF7F0FF20464C
:1002500010BD30B505462A460B4612F8010B13F8BF
:10026000014B08B1A042F8D01CB1002802D06D1C8F
:10027000F1E7284630BD202A04DB203A00FA02F1DB
:10028000002070479140C2F1200320FA03F3194384
:1002900090407047202A04DB203A21FA02F0002126
:1002A000704721FA02F3D040C2F120029140084386
:1002B00019467047064C074D06E0E06840F0010320
:1002C00094E8070098471034AC42F6D3FFF766FF76
:1002D000182600083826000870B54FF47A752B46AA
:1002E000052213A1144801F000F84FF4967000F0B5
:1002F00043F9124C6E1008E02B4605220CA10E4863
:1003000000F0F3FF304600F037F920680028F3D002
:100310000BA20021032001F003FA0CA2012103200B
:1003200001F0FEF900202060BDE8704000F0B8B890
:1003300041540D0A00000000F001002010000020D0
:1003400057492D464920496E69740000436F6E6E0F
:10035000656374696E672E2E2E0000002DE9F04152
:100360004FF47A76334631221BA1244800F0BDFFBA
:100370004FF49675284600F0FFF8284600F0FCF888
:100380001F4C771008E0334631221EA11B4800F0B5
:10039000ACFF384600F0F0F820680028F3D00027C2
:1003A00033460B2222A11548276000F09EFF284605
:1003B00000F0E2F805E033460B221DA10F4800F0E3
:1003C00094FF284600F0D8F820680028F3D0276072
:1003D000BDE8F04100F032B841542B43574A415038
:1003E0003D22222C226D6F746F20653520706C7554
:1003F000732032363237220D0A000000F00100204F
:100400001000002041542B43574A41503D226D6F4C
:10041000746F20653520706C757320323632372248
:100420002C2273616E617431323334220D0A000064
:1004300041542B43494653520D0A000070B54FF406
:100440007A7633460E2210A1134800F04EFF4FF487
:100450009675284600F090F8284600F08DF80F4C6D
:1004600008E033460E2208A10B4800F03EFF284664
:1004700000F082F820680028F3D000202060BDE85A
:10048000704001F0E3BC000041542B4349504D55EE
:10049000583D310D0A000000F0010020100000203E
:1004A00010B54FF47A73092205A1084800F01DFF2A
:1004B0004FF4967000F060F8BDE8104000F008B806
:1004C00041542B5253540D0A00000000F00100204B
:1004D00070B54FF47A7633460E2210A1134800F01F
:1004E00004FF4FF49675284600F046F8284600F0C1
:1004F00043F80F4C08E033460E2208A10B4800F0E9
:10050000F4FE284600F038F820680028F3D00020D8
:100510002060BDE87040FFF721BF000041542B432D
:10052000574D4F44453D330D0A000000F0010020B7
:1005300010000020FEE77047012000F031B810B530
:100540004FF4807000F02CF8BDE810404FF40070BC
:1005500000F026B890F83510022903D080214165BB
:1005600001207047052180F835100068016821F0EE
:10057000010101600020704770B5044600F0F0F8FA
:100580000546601C02D004480078044400F0E8F8F6
:10059000401BA042FAD370BD30000020704700001D
:1005A000044910B50A68024202D00860FFF7F6FF5E
:1005B00010BD0000143C01402DE9F84F00224FF01F
:1005C000010803254FF00F0E0B6808FA02F42340D0
:1005D000A34271D14E68012E05D0022E03D0112EF8
:1005E00001D0122E15D18668570005FA07FC26EABD
:1005F0000C06D1F80CC00CFA07FC4CEA060CC0F84B
:1006000008C04668A6430C79C4F3001494403443F0
:100610004460C668570005FA07FC8C6826EA0C0699
:10062000BC403443C4604C68022C01D0122C13D15E
:10063000D40800EB8404A346D4F8209054074FEA72
:10064000D46A0EFA0AF629EA06090E6906FA0AF6CB
:1006500046EA0906CBF8206004680E7924EA0C0407
:1006600006F00306BE40264306604C68E40056D5FB
:100670002E4C266846F480462660246822F0030645
:1006800004F4804400942A4C3444A446D4F8084826
:100690009607370F0EFA07F6B443264EB04201D143
:1006A000002615E0244EB04201D1012610E0234E71
:1006B000B04202D102260BE031E0214EB04201D11E
:1006C000032605E01F4EB04201D1042600E00726B4
:1006D000BE402643CCF808681B4E34684F689C43E4
:1006E000FF0300D51C433460174E361D34684F6835
:1006F0009C43BF0300D51C433460134E0836346856
:100700004F689C43FF0200D51C4334600E4E0C36EC
:1007100034684F689C43BF0200D51C433460521CB0
:10072000102AFFF451AFBDE8F88F000044380240B2
:100730000030014000000240000402400008024076
:10074000000C024000100240003C014000690840DB
:1007500000D0012070470AB1816170470904FBE7AE
:10076000014880687047000030000020024881681E
:100770000278114481607047300000200B4810B5AA
:10078000016841F400710160016841F48061016019
:10079000016841F480710160032000F077F80020C7
:1007A00000F006F800F024F8002010BD003C0240E4
:1007B00070B50D4D04464FF47A712878B1FBF0F016
:1007C0000A490968B1FBF0F000F02FFC48B9102C81
:1007D00007D200222146501E00F038F800206C603D
:1007E00070BD012070BD0000300000203C000020E2
:1007F0000E4808B5016841F480410160006800F4CA
:10080000804000900948001F016841F0805101605C
:100810000068002200F0805000901146052000F092
:1008200015F8BDE80840052000F002B84438024041
:10083000002809DB00F01F020121914040098000DF
:1008400000F1E020C0F8001170470000F0B40E4B3A
:100850001B680C46C3F30223C3F10705042D00D91E
:100860000425191D072901D2002300E0DB1E012603
:1008700006FA05F1491E214099409E40761E164019
:100880003143F0BC01F07EBA0CED00E0064900F007
:10089000070208684FF6FF03184040EA0220034AA7
:1008A00010430860704700000CED00E00000FA05FE
:1008B0002DE9F843044600684FF00109C1074FF0E5
:1008C000000601D1400727D5DFF81C81C8F8686011
:1008D000FFF746FF0746454D05E000BFFFF740FF25
:1008E000C01B022857D828680001F7D4606881012E
:1008F000207A41EA00703D4984310860C8F8689068
:10090000FFF72EFF074604E0FFF72AFFC01B02286F
:1009100041D828680001F7D52078800752D53348A0
:100920004030016841F0805101600068304D00F0B6
:1009300080500090286840F480702860FFF710FF16
:10094000074604E0FFF70CFFC01B022823D82868E5
:10095000C005F7D5254D7035286810F4407020D0BB
:10096000A18901F4407181421BD0286820F44071B4
:100970002048C0F80090066029602868C00710D0A1
:10098000FFF7EEFE064641F2883707E0FFF7E8FE84
:10099000801BB84202D90320BDE8F883286880078D
:1009A000F4D5E1681148C1F301220830032A12D0BE
:1009B000016821F4F81101602868A189C1F30B01D5
:1009C000084328602078000703D50B49207CC1F834
:1009D000E0010020E0E70268084B22F4F812194019
:1009E0000A430260E8E70000000047420038024086
:1009F00000700040400E474200104742FFFCFF0FCE
:100A00002DE9F0470E46050065D0DFF81481D8F8CF
:100A10000000F7B200F00F00B04207D288F8007073
:100A2000D8F8000000F00F00B04254D128683D4CC7
:100A3000810712D5400703D5206840F4E0502060BC
:100A40002878000703D5206840F4604020602068C3
:100A5000A96820F0F000084320602878C0072DD056
:100A6000304968680839012812D0022813D00328B9
:100A700011D00968890700292DDA216821F00301C6
:100A800001432160FFF76CFE814641F2883A0EE097
:100A900009688903EFE709688901ECE7FFF760FE61
:100AA000A0EB0901514502D90320BDE8F087206879
:100AB000696800F00C00B0EB810FEFD1D8F800109E
:100AC000404601F00F01B14207D90770006800F0FD
:100AD0000F00B04201D00120E7E72878400705D594
:100AE0002068E96820F4E050084320602878000777
:100AF00006D52068296920F4604040EAC1002060E2
:100B000000F038F82168084AC1F30311515CC8406D
:100B10000649086006480068FFF74AFE0020C4E75F
:100B2000003C024008380240002600083C0000203B
:100B3000340000200448054900680968044AC1F3EC
:100B40008221515CC84070473C00002008380240B8
:100B5000102600080448054900680968044AC1F3E2
:100B60004231515CC84070473C00002008380240C8
:100B700010260008154810B5006810F00C02144843
:100B800013D04110042A0FD0082A0ED10F4C241F75
:100B90002268236802F03F025B0207D52068C0F399
:100BA0008810A0FB010106E0084610BD2168C1F3D2
:100BB0008811A1FB00010023FFF708FB2168C1F3A6
:100BC0000141491C4900B0FBF1F010BD083802405A
:100BD0000024F4002DE9F84F040076D02078DFF8E7
:100BE00038A3CE4DC00749D0DAF800105046C1F303
:100BF0008101012908D00068C0F3810002280AD1D0
:100C0000281D0068400206D52868800336D5606834
:100C10000028E2D032E06068B0F5803F10D0B0F537
:100C2000A02F286810D020F480302860286820F495
:100C3000802028606068A0B1FFF792FD06460CE0B6
:100C4000286840F48030F4E740F480202860F7E71B
:100C5000FFF786FD801B642873D828688003F7D5CA
:100C60000CE0FFF77DFD064605E000BFFFF778FDCD
:100C7000801B6428F0D828688003F7D42078DFF838
:100C8000A08280074FF000093ED5DAF800105046E8
:100C900011F00C0F09D00068C0F3810002280BD1BD
:100CA0009D48001F0068400206D42868800715D5BB
:100CB000E068012809D111E0E068B8B10120C8F866
:100CC0000000FFF74DFD064605E020E1FFF748FD77
:100CD000801B0228C0D828688007F7D528682169BA
:100CE00020F0F80040EAC10028600DE0C8F800904C
:100CF000FFF736FD064604E0FFF732FD801B0228B1
:100D00001FD828688007F7D42078000722D5824EA4
:100D1000844861696C3671B101210160FFF720FDE3
:100D2000074604E0FFF71CFDC01B022809D8306805
:100D30008007F7D50EE0C0F80090FFF711FD0746D9
:100D400005E082E0FFF70CFDC01B02287DD830686B
:100D50008007F7D42078400768D5DFF8BCB10027BA
:100D60000BF1380BDBF80000C0000BD4DBF80010EF
:100D700041F08051CBF80010DBF80000012700F0B3
:100D800080500090684E3068C00510D4306840F440
:100D900080703060FFF7E4FC009005E0FFF7E0FCB6
:100DA0000099401A022850D83068C005F6D55A4E2E
:100DB000A068683601280FD00528306810D020F0D0
:100DC00001003060306820F004003060A068B8B1E5
:100DD000FFF7C6FC00900FE0306840F00100F4E738
:100DE00040F004003060F7E7FFF7BAFC0099411AC1
:100DF00041F28830814266D830688007F4D50EE031
:100E0000FFF7AEFC009007E0FFF7AAFC0099411A3B
:100E100041F28830814256D830688007F4D42FB12F
:100E2000DBF8001021F08051CBF80010A069D0B39E
:100E3000DAF800205146C2F38102022A4AD0022881
:100E4000484607D0C8F8600000E03CE0FFF788FCA7
:100E500004463BE04746C8F86000FFF781FC0646C1
:100E600005E000BFFFF77CFC801B02282BD8286818
:100E70008001F7D4D4E907010843A16A2B4A490845
:100E800002EB0141626A41EA8211084394F82C1096
:100E900040EA01612048001F016001203866FFF729
:100EA0005FFC044605E034E0FFF75AFC001B022813
:100EB00009D828688001F7D52BE000BFFFF750FC68
:100EC000001B022802D90320BDE8F88F28688001A2
:100ED000F4D41EE00128F7D00868E26900F480012C
:100EE000914214D1226A00F03F0191420FD147F69E
:100EF000C071626A0140914209D1A26A00F4403196
:100F0000914204D1E16A00F07060884201D0012072
:100F1000DAE70020D8E70000083802400038024035
:100F200000004742800E4742007000400000FFFF73
:100F300070B5040002D0607F10B106E0012070BDE2
:100F400000202077204600F049F8022060772168D1
:100F5000CA204862216853204862204600F0EAFB1C
:100F6000FF25042618BB206881681B4A1140816058
:100F70002168886862681043D4E904231A43104347
:100F800088602168E068086120680169228941EA77
:100F9000024101612068C16821F08001C1602068C0
:100FA0008068800607D4204600F024F818B1206835
:100FB00045626677C2E72068016C21F480210164F4
:100FC0002068016CA2691143016420684562012018
:100FD0006077002070BD0000BFFF8FFF00680349ED
:100FE000884202D102490120086070470028004071
:100FF0003C0E474270B504460068C16821F0A0016C
:10100000C160FFF7ADFB05464FF47A7607E000BFFD
:10101000FFF7A6FB401BB04201D9032070BD20683A
:10102000C0688006F4D5002070BD10B5401EB0F138
:10103000807F01D3012010BD4FF0E02460610F21BB
:10104000601700F09FFE0020A061072020610020B3
:1010500010BD704770B5026804461068D1685369C6
:1010600010F00F0F53D003F0010501F490762E43DA
:101070005FD0C20705D0CA0503D5E26B42F001027A
:10108000E263420705D5DA0703D0E26B42F00202C1
:10109000E263820705D5DA0703D0E26B42F004026F
:1010A000E263020707D501F020022A4303D0E26B76
:1010B00042F00802E263E26B002A34D0800604D5D5
:1010C000880602D5204600F0DFFB20684069E16B0E
:1010D000C0F3801001F008010143204624D000F045
:1010E000C5FB2068416949061AD5416921F04001D4
:1010F0004161606BA0B11B490165606BFFF72AFA83
:10110000002810D0606B016DBDE870400847830671
:101110000FD58B060DD52046BDE8704000F0B4BB5E
:101120002046FFF796FF70BDFFF793FF0020E063B6
:1011300070BD030606D50B0604D52046BDE87040F9
:1011400000F082BC4006F3D54806F1D5D1682046B0
:1011500021F04001D160202184F8391000F022F9FB
:1011600070BD00005D18000870B5040004D094F84C
:101170003900002510B106E0012070BD84F8385018
:10118000204600F023F8242084F839002068C16844
:1011900021F40051C160204600F0C2FB20680169C3
:1011A00021F4904101612068416921F02A014161E7
:1011B0002068C16841F40051C160E563202084F8D3
:1011C000390084F83A00002070BD0000F0B587B007
:1011D000044614216846FFF731F83E49DFF8F0C0B5
:1011E000276800223B4B14390224032507263A487E
:1011F00067451FD11F6847F010071F601B6803F089
:10120000100305930B6843F001030B60096802AFFC
:1012100001F0010105916902CDE9001487E864003D
:101220006946FFF7C9F9002211462520FFF70EFB9A
:10123000252024E0DFF8A4C0674524D1254B1B1FDF
:101240001F6847F400371F601B6803F400330593E1
:101250000B6843F001030B60096802AB01F0010168
:1012600005910C21CDE9001483E864006946FFF77D
:10127000A3F9002211462620FFF7E8FA2620FFF7FF
:10128000D7FA07B0F0BD16488742FAD1186840F087
:1012900020001860186800F020000590086840F0F1
:1012A000040008600868029200F004000590C02065
:1012B000CDE900040820CDE9035069460948FFF74D
:1012C0007BF9002211464720FFF7C0FA4720D6E7F6
:1012D0000010014044380240000002400044004039
:1012E000001401400008024070472DE9F84304460D
:1012F00090F839001F4616460D46202850D1B5B14A
:10130000AEB194F8380001284AD0012084F83800A2
:101310004FF00008C4F83C80212084F83900FFF722
:101320001FFAA6848146E68484F8388026E00120EE
:10133000BDE8F883E08C401EE084A0684B46B0F521
:10134000805F4FF000024FF080012046009703D0ED
:1013500000F0ABFBE8B90DE000F0A7FBC8B92888A6
:101360002168C0F308004860206908B16D1C05E0E1
:10137000AD1C03E0216815F8010B4860E08C0028E3
:10138000D8D14B46002240212046009700F08DFB2B
:1013900008B10320CCE7202084F839000020C7E7FB
:1013A0000220C5E77047FEE72DE9F04F87B0142112
:1013B0006846FEF743FF3F480024016841F00401FE
:1013C0000160016801F004010591016841F08001AC
:1013D0000160016801F080010591016841F001019F
:1013E0000160016801F001010591016841F002010D
:1013F00001600068DFF8C09000F002000590002254
:101400001E214846FFF7A7F9012220214846FFF791
:10141000A2F9DFF8A8A041F23F1700223946504652
:10142000FFF799F9DFF898B04FF480780022414631
:101430005846FFF790F93E2000900125CDE9015470
:10144000694648460394FFF7B7F81E4E6946CDE952
:10145000005658460295FFF7AFF80097CDE90154C2
:10146000694650460394FFF7A7F84FF44070CDE962
:101470000006694602954846FFF79EF8CDF80080C1
:10148000CDE90154694658460394FFF795F80022C8
:1014900011460620FFF7DAF90620FFF7C9F9002206
:1014A00011461720FFF7D2F91720FFF7C1F907B04F
:1014B000BDE8F08F303802400008024000040240CE
:1014C0000000024000002110FEE77047704770479F
:1014D000012000F08BB800220F2800D9002001293C
:1014E00002D809B103D101E0802200E0C0221044FB
:1014F000C0B200F07BB80000F0B585B00F20012429
:10150000CDE90004284F0225694603953846FFF7C8
:1015100053F82020CDE90004694603953846FFF7CB
:101520004BF82602CDE90064694638460395FFF77B
:1015300043F81020CDE90004694603953846FFF7CB
:101540003BF8002231463846FFF705F9002210210A
:101550003846FFF700F9002220213846FFF7FBF854
:101560001020FFF709F8302000F05CF80520FFF7A5
:1015700003F8302000F056F80120FEF7FDFF302080
:1015800000F050F8202000F04DF8282000F02EF850
:101590000C2000F02BF8012000F028F8062000F0C5
:1015A00025F805B0F0BD00000004024038B504463F
:1015B00000200090207825280DD114F8010F303834
:1015C00040B2072801D8C0B203E0252000F01CF883
:1015D000207800F019F80098205C00F015F80098C9
:1015E000401C0090205C0028E4D138BD10B50446B2
:1015F000002210210348FFF7AEF82046BDE8104056
:1016000000F04AB80004024010B50446012210213F
:101610000348FFF7A0F82046BDE8104000F03CB8B2
:101620000004024070B504461A4DC00601D50122DF
:1016300000E0002201212846FFF78DF8A00601D521
:10164000012200E0002202212846FFF784F860060C
:1016500001D5012200E0002204212846FFF77BF893
:10166000200601D5012200E0002208212846FFF7CC
:1016700072F80122140221462846FFF76CF8012077
:10168000FEF77AFF21462846BDE870400022FFF7AA
:1016900062B800000004024010B50446FFF7C2FF24
:1016A0002046BDE8104000F001B8000070B50446C7
:1016B0001A4DC00701D0012200E000220121284676
:1016C000FFF749F8A00701D5012200E0002202211E
:1016D0002846FFF740F8600701D5012200E000220C
:1016E00004212846FFF737F8200701D5012200E042
:1016F000002208212846FFF72EF801221402214675
:101700002846FFF728F80120FEF736FF2146284635
:10171000BDE870400022FFF71EB800000004024040
:1017200010B51446FFF7D7FE2046BDE81040FFF77E
:101730003DBF000070B504460068C168490614D476
:101740004FF0FF31C160FFF70BF805464FF47A7692
:1017500007E000BFFFF704F8401BB04201D90320A7
:1017600070BD2068C0684006F4D5002070BD000040
:1017700010B58020FFF73AFF054C6079FFF744FF72
:10178000E17804480170217941706179817010BD60
:1017900008010020000000207047FEF7E7BF0000AE
:1017A00030B597B030216846FEF748FD14210CA8EB
:1017B000FEF744FD142111A8FEF740FD1E48002548
:1017C000016841F080510160006800F0805016907F
:1017D0001A48016821F4404141F400410160006869
:1017E000022400F440401690052000904FF4803011
:1017F0000190012002908005CDE906400420A82137
:10180000CDE908010A9007200B906846FFF7E2F93E
:101810000CA90F2081E83100E002CDE90F0502217B
:101820000CA8FFF7EDF8E0011490119411A8FFF750
:101830003FF817B030BD0000403802400070004053
:101840000548016841F47001016003494FF00060F0
:10185000803908607047000088ED00E010B5806BAB
:101860000021C185C184FFF7F4FB10BD0168CA687F
:1018700022F49072CA6001684A6922F001024A614A
:10188000202180F83A10704710B590F83A102229BC
:1018900001D0022010BD8168B1F5805F11D00169CF
:1018A000002901681FD0496801F07F03816A4A1C42
:1018B00082620B70C18D491E0904090CC18518D0C4
:1018C0002BE00269816A002A0268526805D0D2B210
:1018D0000A80816A491C8162ECE7C2F308020A802F
:1018E000816A891CF7E74A68816A4B1C83620A7027
:1018F000E0E70168CA6822F02002CA600168CA688D
:1019000022F48072CA6001684A6922F001024A61C9
:10191000202180F83A10FFF7E7FC002010BD0000FE
:101920002DE9F041044600680169E26821F4405164
:10193000114301612169A068E269084361691143AB
:1019400008432168CA6849F20C639A430243CA609B
:1019500020684169A26921F4407111434161E06945
:10196000192764253226B0F5004F354A35492068DD
:101970004FF0000806D0884201D0904236D1FFF7E0
:10198000E9F835E0884201D0904202D1FFF7E2F851
:1019900001E0FFF7CFF861684A18A0FB070148EBA8
:1019A0000803FEF713FC0146B0FBF5F00201B1FBA2
:1019B000F5F06FF01803584301EB800006EBC00010
:1019C000B0FBF5F000F0F80002EB4002B1FBF5F0DF
:1019D000584301EB800006EBC000B0FBF5F000F0CF
:1019E0000700216810448860BDE8F081FFF7A2F885
:1019F00061688B0F8A00A0FB0701FEF7E7FB014639
:101A0000B0FBF5F06FF01802504301EB800006EBDD
:101A10000010B0FBF5F000F0F002B1FBF5F002EBC6
:101A20000012B1FBF5F06FF01803584301EB800092
:101A300006EB0010B0FBF5F000F00F00D1E700005E
:101A4000001401400010014090F83910212901D004
:101A5000022070478168B1F5805F016A0BD04A1C93
:101A60000262026809785160C18C491E0904090CA0
:101A7000C1840ED017E009880268C1F308015160E3
:101A800001690029016A02D0491C0162ECE7891C46
:101A9000FBE70168CA6822F08002CA600068C1687A
:101AA00041F04001C160002070472DE9F0419846A7
:101AB00017460E460446069D1DE0681C1BD02DB13E
:101AC000FEF74EFEA0EB0800A84214D92068C168BA
:101AD00021F4D071C1602068416921F001014161A8
:101AE000202084F8390084F83A00002084F8380077
:101AF0000320BDE8F0812068006836EA000004D0C9
:101B00000020B842D9D00020F3E70120F9E7000017
:101B100070B52A48FFF79EFA2848006842682948AD
:101B200027490368CA5402680A4412F8012C0124A8
:101B300000234F2A06D102688A5C4B2A02D1224A2E
:101B40001460036002680A4412F8035C1F4A2B2DDC
:101B50000FD105680D4415F8025C492D09D10568BF
:101B60000D4415F8015C502D03D105684D5D442DE1
:101B700003D09468012C01D012E0946004680C5DDD
:101B8000442C0DD004680C5D2C2C09D004680C5D2D
:101B90000F4D11686C54491C11605168491C51600B
:101BA00051680A2902D15360136093600168C72904
:101BB00000DD03600168491C016070BDF001002078
:101BC000400000200C000020100000202000002019
:101BD000080100200148FFF73DBA00003002002054
:101BE0000148FFF737BA000070020020FEE700004E
:101BF000064900204860064A106088600548006871
:101C0000C16841F02001C160FEF766BB0000002002
:101C100010000020F00100202DE9F0414FF416756E
:101C20002846FEF7A9FC194C00262B46112218A1C4
:101C30001C482660FFF759FB6F103846FEF79CFCE6
:101C400008E03846FEF798FC2B46112210A11548F3
:101C5000FFF74BFB20680028F3D02B46062212A189
:101C600010482660FFF741FB2846FEF785FC4FF43D
:101C70007A752B460F220EA10A48FFF736FB28463D
:101C8000FEF77AFC2660BDE8F0810000100000201D
:101C900041542B43495053454E443D302C31300D77
:101CA0000A000000F00100204F46460D0A00000027
:101CB00041542B434950434C4F53450D0A000000FB
:101CC0002DE9F0414FF4167633460F221CA120482F
:101CD000FFF70BFB3046FEF74FFC1E4C002533464A
:101CE00011221DA11A482560FFF7FFFA7710384628
:101CF000FEF742FC08E03846FEF73EFC3346112270
:101D000015A11348FFF7F1FA20680028F3D03346F5
:101D1000062216A10E482560FFF7E7FA4FF4FA767F
:101D20003046FEF729FC73000F2212A10848FFF786
:101D3000DCFA3046FEF720FC2560BDE8F0810000AB
:101D400041542B4349505354415455530D0A0000FC
:101D5000F00100201000002041542B43495053450E
:101D60004E443D302C31300D0A0000004F4E0D0A1C
:101D70000000000041542B434950434C4F53450D44
:101D80000A0000000907090E002804DB00F1E0202A
:101D900080F80014704700F00F0000F1E02080F898
:101DA000141D704702E008C8121F08C1002AFAD1AA
:101DB00070477047002001E001C1121F002AFBD1CB
:101DC0007047000070B54FF47A763346112215A1A2
:101DD0001948FFF78AFA4FF496752846FEF7CCFBB0
:101DE0002846FEF7C9FB154C08E0334611220DA129
:101DF0001148FFF77AFA2846FEF7BEFB2068002854
:101E0000F3D000202060FFF763FB0DA20021032028
:101E1000FFF786FC3046FEF7AFFBBDE87040FFF7EA
:101E200057BB000041542B4349505345525645522D
:101E30003D310D0A00000000F001002010000020DC
:101E4000436F6E6E656374656400000070B54FF497
:101E50007A7633460E2210A11348FFF746FA4FF464
:101E600096752846FEF788FB2846FEF785FB0F4C43
:101E700008E033460E2208A10B48FFF736FA284641
:101E8000FEF77AFB20680028F3D000202060BDE830
:101E90007040FFF797BF000041542B43574D4F440C
:101EA000453D330D0A000000F00100201000002025
:101EB000F6A19AB007C904ABDFF8E8A383E80700EE
:101EC000F5A007AB07C883E807000024CAF8044060
:101ED000F549CAF80C40CAF800400C60F3A100268E
:101EE000D1E90021CDE90021F2A2D2E90012CDE929
:101EF0000212F2A2D2E90012CDE90E12F1A2D2E949
:101F00000012CDE90A12F1A2D2E90012CDE91012B5
:101F1000F0A1D1E90021CDE90C219AF80800EFA148
:101F20008DF83600D1E90001CDE91201EDA1D1E92A
:101F30000001CDE91401EDA0D0E90010CDE91610A3
:101F4000ECA0D0E90010CDE91810FEF717FCFFF760
:101F500027FCFFF729FADFF8A883E8494046C8F8CC
:101F600000104FF4E131C0E901140C25C8F80C4011
:101F7000C0E90445C8F81840C8F81C40FFF7F4F859
:101F800008F14000DF494FF416570160C0E90174C1
:101F9000C460C0E904458461C461FFF7E5F808F155
:101FA0008000D9490160C0E90174C460C0E90445FA
:101FB0008461C461FFF7D8F8A8F12000D349C0E9D3
:101FC00000147F218160FF21C0E903144461846112
:101FD000FEF7AEFFFFF790FADFF8349300220221FC
:101FE0004D464846FEF7B7FB002204212846FEF77F
:101FF000B2FB002208212846FEF7ADFB002210218B
:102000002846FEF7A8FB4FF4FA752B4608220EA9C6
:1020100008F14000FFF769F96420FEF7ADFA0027E8
:10202000B7482B4608220AA94030FFF75EF9322054
:10203000FEF7A2FA7F1C0A2FF2DB04AA002103207C
:10204000FFF76EFB6420FEF797FA07AA0121032031
:10205000FFF766FB4FF4FA60FEF78EFA0120FFF7F8
:10206000C5FAD8F80000C16841F02001C160FFF74F
:10207000BFFD4FF47A70FEF77FFAA6A2002103207D
:10208000FFF74EFBA5A200210A20FFF749FBA5A2FE
:1020900001210320FFF744FBA4A201210A20FFF73E
:1020A0003FFBDFF890B2DFF890822846FEF764FA33
:1020B000FFF75EFBA1A1A248FEF7CBF8F8B1002222
:1020C0004FF480715846FEF746FB3220FEF754FA73
:1020D000012202214846FEF73EFB89482B46082292
:1020E00002A94030FFF701F92846FEF745FA00261D
:1020F00094A231460320FFF713FB322074E193A131
:102100008F48FEF7A6F8B8B1012211025846FEF733
:1021100022FB002202214846FEF71DFB78482B4691
:10212000082269464030FFF7E0F82846FEF724FA17
:10213000002678A231466CE085A18148FEF789F837
:10214000D8B1002220214E464846FEF704FB01226A
:1021500004213046FEF7FFFA69482B46082202A9FF
:102160004030FFF7C2F82846FEF706FA002679A2AB
:102170001FE000BFFFF7D4FA5DE178A17048FEF7D9
:1021800068F8C0B1012220214E464846FEF7E3FA26
:10219000002204213046FEF7DEFA59482B46082279
:1021A00069464030FFF7A1F82846FEF7E5F900261A
:1021B0005AA200215DE06AA16148FEF74AF888B1A1
:1021C000012208214846FEF7C6FA4D482B46082250
:1021D00002A94030FFF789F82846FEF7CDF900261E
:1021E00060A215E061A15648FEF733F898B10022CD
:1021F00008214846FEF7AFFA41482B4608226946B7
:102200004030FFF772F82846FEF7B6F9002645A2DF
:1022100001210320AEE756A14948FEF71AF888B11C
:10222000012210214846FEF796FA35482B4608222F
:1022300002A94030FFF759F82846FEF79DF900261D
:102240004CA215E04DA13E48FEF703F898B10022DC
:1022500010214846FEF77FFA29482B460822694696
:102260004030FFF742F82846FEF786F900262FA2F5
:1022700001210A207EE742A13148FDF7EAFF20B1A3
:10228000022196E0FFF71CFDD5E07EE057454C4368
:102290004F4D4520544F0000534D41525420484F5C
:1022A0004D450000100000202C0000207EFF06128B
:1022B000000001EF7EFF0612000002EF7EFF06091C
:1022C000000002EF7EFF0605000000EF7EFF06041F
:1022D000000000EF7EFF0611000000EF7EFF060DFC
:1022E000000000EF7EFF060E000000EF7EFF0601FB
:1022F000000000EF7EFF0602000000EF001001402A
:10230000F00100200044004000140140002800407B
:10231000000802404C313A4F464600004C323A4FDA
:10232000464600004C333A4F464600004C343A4F84
:102330004646000000000240080100203131310013
:10234000000000204C313A4F4E2000003131320065
:10235000313231004C323A4F4E20000031323200DF
:10236000313331004C333A4F4E20000031333200CC
:10237000313431004C343A4F4E20000031343200B9
:1023800031313300FFF748FC55E092A19248FDF748
:1023900060FF08B104210CE090A18F48FDF759FFC0
:1023A00008B1082105E08EA18B48FDF752FF30B13E
:1023B00010214846FEF7CAF90028E3D062E789A158
:1023C0008548FDF746FF90B12B464FF008020EB14D
:1023D00012A93BE00CA98448FEF787FF4FF49670E2
:1023E000FEF7CAF8012626E0FEF7C6F823E07FA133
:1023F0007948FDF72EFF18B12B46082214A925E0D5
:102400007BA17548FDF725FFC0B1DAF808005746F3
:10241000072810DC2B46082216A97348FEF765FF33
:102420004FF49670FEF7A8F8B868072801DA401C48
:1024300000E00120B86088F8034036E66DA16648E8
:10244000FDF707FF40B12B46082218A96648FEF7A2
:102450004CFF4FF49670C7E767A15F48FDF7F9FEA0
:1024600018B300220E214846FEF775F94FF4967016
:10247000FEF782F888F80340AFF2681200210320CB
:10248000FFF74EF9AFF26C1200210A20FFF748F96E
:10249000AFF2701201210320FFF742F9AFF274127C
:1024A00001210A20FFF73CF9FFE554A14A48FDF756
:1024B000D0FEE8B300220E214F464846FEF74BF906
:1024C0002846FEF759F8012202213846FEF743F963
:1024D00000220C213846FEF73EF92846FEF74CF85C
:1024E000012204213846FEF736F900220A21384637
:1024F000FEF731F92846FEF73FF801220821384659
:10250000FEF729F9002206213846FEF724F928466D
:10251000FEF732F8002206213846FEF71CF928465D
:10252000FEF72AF8002208213846FEF714F900E0E9
:1025300025E0012206213846FEF70DF92846FEF770
:102540001BF8002202213846FEF705F901220C2172
:102550003846FEF700F92846FEF70EF8002206215D
:102560003846FEF7F8F82846FEF706F8012206215D
:102570003846FEF7F0F82846FDF7FEFF95E54FF4E4
:1025800080714F464846FEF7E1F8A0B14FF4007164
:102590003846FEF7DBF8002886D100272B460822B4
:1025A00010A91148FEF7A1FE3220FDF7E5FF7F1CC0
:1025B000052FF3DB79E500272B4608220AA90A48F4
:1025C000FEF793FE3220FDF7D7FF7F1C052FF3DBCC
:1025D0006BE500003132330000000020313333005E
:1025E00031343300313531003002002031353200D2
:1025F0003135340031353500313632003136310075
:1026000000000000000000000102030406070809A2
:10261000000000000102030438260008000000202A
:1026200040000000A41D000878260008400000209B
:1026300070060000B41D00083030300000000000BB
:10264000000000000000000000000000000000008A
:102650000100000000000000000000000000000079
:102660000000000000000000010000001000000059
:08267000000000000024F4004A
:040000050800019559
:00000001FF
